00000036JAZZ  LNAME USED     FNAME OUT CNTY PERC        USED        OUT00008191901280005120
00000036JAZZ  LNAME USED     FNAME OUT CNTY PERC        USED        OUT00008191901280005120
00000036JAZZ  LNAME USED     FNAME OUT CNTY PERC        USED        OUT00008191901280005120
00000036JAZZ  LNAME USED     FNAME OUT CNTY PERC        USED        OUT00008191901280005120
00000036JAZZ  LNAME USED     FNAME OUT CNTY PERC        USED        OUT00008191901280005120
00000036JAZZ  LNAME USED     FNAME OUT CNTY PERC        USED        OUT00008191901280005120
00000036JAZZ  LNAME USED     FNAME OUT CNTY PERC        USED        OUT00008191901280005120
00000036JAZZ  LNAME USED     FNAME OUT CNTY PERC        USED        OUT00008191901280005120
00000036JAZZ  LNAME USED     FNAME OUT CNTY PERC        USED        OUT00008191901280005120
00000036JAZZ  LNAME USED     FNAME OUT CNTY PERC        USED        OUT00008191901280005120
00000036JAZZ  LNAME USED     FNAME OUT CNTY PERC        USED        OUT00008191901280005120
00000036JAZZ  LNAME USED     FNAME OUT CNTY PERC        USED        OUT00008191901280005120
00000036JAZZ  LNAME USED     FNAME OUT CNTY PERC        USED        OUT00008191901280005120
00000036JAZZ  LNAME USED     FNAME OUT CNTY PERC        USED        OUT00008191901280005120
